:020000040800F2
:10000000D8190020790C0008970100089901000810
:100010009D010008A1010008A501000800000000E2
:10002000000000000000000000000000A90100081E
:10003000AB01000800000000AD010008AF0100089E
:10004000930C0008930C0008930C0008930C000814
:10005000930C0008930C0008930C0008930C000804
:10006000930C0008930C0008930C0008930C0008F4
:10007000930C0008930C0008930C0008930C0008E4
:10008000930C0008930C0008930C0008930C0008D4
:10009000930C0008930C0008930C0008930C0008C4
:1000A000930C0008930C0008930C0008930C0008B4
:1000B000930C0008670A0008930C0008930C0008D2
:1000C000930C0008930C0008930C0008930C000894
:1000D000930C0008ED0B0008930C0008930C00082B
:1000E000930C0008930C0008930C000800F002F831
:1000F00000F042F80AA090E8000C82448344AAF180
:100100000107DA4501D100F037F8AFF2090EBAE87D
:100110000F0013F0010F18BFFB1A43F0010318473B
:1001200094860000B4860000103A24BF78C878C1D5
:10013000FAD8520724BF30C830C144BF04680C60ED
:10014000704700000023002400250026103A28BF35
:1001500078C1FBD8520728BF30C148BF0B60704739
:10016000642902F0E782782902F02083002070479A
:100170001FB51FBD10B510BD02F072FC1146FFF790
:10018000F7FF00F0D7FB02F090FC03B4FFF7F2FF9B
:1001900003BC00F0D1FC704700BFFEE700BFFEE7E4
:1001A00000BFFEE700BFFEE770477047704770472B
:1001B00000210020674A126842F48032654B1A60C1
:1001C00000BF644A126802F40030491C10B9B1F54E
:1001D000A06FF6D15F4A126812F4003F01D00120EF
:1001E00000E00020012842D15B4A126842F0100270
:1001F000594B1A601A46126822F003021A601A4616
:10020000126842F002021A60524A5268514B5A6018
:100210001A4652685A601A46526842F480625A601E
:100220001A46526822F47C125A601A46526842F406
:10023000E8125A601A46126842F080721A6000BFD3
:10024000444A126812F0007FFAD0424A526822F003
:100250000302404B5A601A46526842F002025A604A
:1002600000BF3C4A526802F00C02082AF9D17047DC
:1002700010B5FFF79DFF10BD10B53648006840F07F
:100280000100344908600846406834490840314953
:10029000486008460068324908402E490860084610
:1002A000006820F4802008600846406820F4FE00C2
:1002B00048604FF41F008860FFF7DAFF4FF00060DE
:1002C0002849086010BD10B5002100200022214BF4
:1002D0005B6803F00C0121B1042906D0082928D15C
:1002E00007E0214B214C236027E01F4B1F4C23606C
:1002F00023E0184B5B6803F47010164B5B6803F443
:100300008032022303EB904022B9194B4343174C30
:1003100023600DE00F4B5B6813F4003F04D0144BD7
:100320004343124C236003E00F4B43430F4C2360C5
:1003300003E00D4B0D4C236000BF00BF054B5B6815
:10034000C3F303130B4CE15C084B1B68CB40074C19
:10035000236010BD00100240002002400000FFF8A2
:10036000FFFFF6FE08ED00E000127A00000000201A
:1003700000093D000400002030B5039CFD4D0560E0
:10038000FD4D8560FD4D4560FD4DC560FD4D056130
:10039000FD4D456118258561C5614562056285622F
:1003A000C562FA4D0D60FA4D4D60FA4D1560FA4D7B
:1003B000556018258D60CD609560D560F74D25603E
:1003C0000025656030BD10B5044604E014F8011B3B
:1003D000F3A002F06DF920780028F7D110BD2DE9C7
:1003E000F04104460D4616461F46EEA0D4E902121F
:1003F00002F05EF9F4A002F05BF92068FFF7E3FF7A
:10040000F0A002F055F9F1A002F052F96068FFF790
:10041000DAFFECA002F04CF9EDA0716802F048F9A7
:100420003068FFF7D0FFE7A002F042F9EDA0D5E970
:10043000021202F03DF9F3A002F03AF92868FFF742
:10044000C2FFE0A002F034F9EFA002F031F96868D1
:10045000FFF7B9FFDBA002F02BF9ECA0796802F0FE
:1004600027F93868FFF7AFFFD6A002F021F9BDE801
:10047000F08130B58FB0044641F271752022EAA1B7
:1004800001A802F006FAF0A00068009001A8099007
:1004900020200A90CDF82CD004200C9000200E9043
:1004A0000D902246002109A805F068FE054615B109
:1004B00028460FB030BD2846FBE72DE9F0419EB03D
:1004C00005460E4617469846002400208DF8080081
:1004D0002020039001A806F0BBF904461CB1204679
:1004E0001EB0BDE8F0813246294601A806F053F956
:1004F00004460CB12046F3E74246394601A806F00F
:100500005FF904460CB12046EAE72046E8E72DE90A
:10051000F04F9DB004460E4617469946DDF8988088
:100520000025AB4600200D900C90059004900390A0
:10053000029020681090A068129060681490E068A3
:1005400016902069189060691A90A0691190E0696E
:100550001390606A1790206A1590A06A1990E06A5B
:100560001B90306809907068089038680790786828
:100570000690B0680590F0680490B8680390F86839
:100580000290D9F800A0D9F804B008F10403594644
:100590005046D8F80020FFF790FF05461DB12846C9
:1005A0001DB0BDE8F08F4FF48050ADF83C00002046
:1005B000ADF83E00A5480E900EA910A803F070F902
:1005C00005460DB12846EBE70EAA10A90DA803F0C9
:1005D00043FA054605B143E00021059B099A0D98B1
:1005E00003F0BCFB0121049B089A0D9803F0B6FBB5
:1005F0000EAA10A90D9803F017FC054605B12AE0D4
:100600000EAA10A90CA803F0ADFD054605B122E025
:100610000021039B079A0C9803F0E2FD0546012197
:10062000029B069A0C9803F0DBFD054305B10DE033
:1006300010A80B900D980A900EA800900AABD8E96C
:1006400000010C9A04F095F8054600BF0EA90CA80D
:1006500003F01AFD00BF0EA90DA803F04BF800BF70
:100660000EA910A803F008F8284699E72DE9F04FE5
:10067000A3B00446894616461F46DDE92CA800258E
:1006800000201790079006900590D9F800B0D9F88F
:1006900004001790331D326858461799FFF70DFF75
:1006A00005461DB1284623B0BDE8F08F18A8FFF716
:1006B000E0FE05460DB10020F5E7644808900020F3
:1006C000ADF826004FF48050ADF8240020680A9061
:1006D000A0680C9060680E90E068109020691290FD
:1006E00060691490A0690B90E0690D90606A1190A8
:1006F000206A0F90A06A1390E06A159008A90AA8D2
:1007000003F0CEF8054605B1E1E008AA0AA907A85A
:1007100003F0A2F9054605B1D4E008AA0AA906A883
:1007200003F002FA054605B1C7E008A80AAB18AA0B
:100730000090DDE9060103F02EFA054605B1B7E0A9
:1007400008AA0AA905A803F00DFD054605B1AFE00A
:100750000AA803900698029018A8049008A8009090
:1007600002ABD6E90001059A03F052FD054605B13A
:1007700099E06DE0026F00081A6F0008326F000800
:100780004A6F0008626F00087A6F0008926F0008D5
:10079000AA6F0008C26F0008DA6F0008441000203A
:1007A000257820007075626C6963206B65793A0961
:1007B000785F73697A653A25640909795F73697AA4
:1007C000653A25640D0A0000783A0000793A000085
:1007D00070726976206B65793A0973697A653A2592
:1007E000640D0A007369676E3A0909725F73697A6A
:1007F000653A25640909735F73697A653A25640D62
:100800000A000000723A0000733A000064696765EC
:1008100073743A09096469676573745F73697A650B
:100820003A25640D0A0000009D201A189B6D1AA736
:100830000E79576F36B6AA8855FD4A7F97E97169D8
:10084000B6608878E19C8BA500010203440000207B
:1008500007F1080300213A68079802F083FF054674
:1008600007F10C0301217A68079802F07BFF05432A
:100870000AF10402DAF80010069802F0D1FF0546EA
:1008800008F108030021D8F80020059803F018FCAF
:10089000054608F10C030121D8F80420059803F05F
:1008A0000FFC054300BF08A905A803F0EDFB00BF3E
:1008B00008A906A802F03FFF00BF08A907A802F098
:1008C00019FF00BF08A90AA802F0D6FE00BF18A8A9
:1008D00005F03AFC2846E6E610B59EB0002402F08A
:1008E00090FD08A806AB0AAA0EA9009012A8FFF76F
:1008F00043FD294806900C2007902848049028487A
:1009000002900AA802A90EAB04AACDE9001006A91C
:1009100012A8FFF7ABFE04460AA802A90EAB04AA70
:10092000CDE9001006A912A8FFF7A0FE0446204654
:100930001EB010BDFFF7A0FC482000F0A9F800F0A1
:1009400039F8FFF7C9FF25E01648006808B901200B
:1009500000E00020134908604FF04B0000F0B1F8B0
:100960001148D0F8900108B9012000E000200F499B
:1009700008604FF04B0000F0A4F80B48D0F88C0151
:1009800008B9012000E00020094908604FF04B0041
:1009900000F097F8D8E7000014000020741200203F
:1009A0002C1100208081214200002242900122422D
:1009B0008C01224208B50121182000F0FDFC012025
:1009C000ADF8000010208DF8030003208DF8020020
:1009D00069460C4800F03EFA01210A4800F0E5FAA9
:1009E0001820ADF8000010208DF8030003208DF8CA
:1009F00002006946044800F02DFA1821024800F070
:100A0000D4FA08BD000C0140001001407FB5054636
:100A10000C460121022000F0DCFCADF80850ADF8D6
:100A200004400020ADF80A00ADF8060001A9164800
:100A300000F0FEFD01221146134801F070F91D205F
:100A40008DF8000000208DF8010003208DF80200D1
:100A500001208DF80300684600F033F901210A48AF
:100A600001F042F97FBD10B50121074801F005FCF6
:100A700040B10121044801F011FC04480068401C09
:100A80000249086010BD0000000400402000002062
:100A900010B504466FF0040000F05EF9E11704EBB6
:100AA0005171C910224A11701046007800EB4001C4
:100AB000C1EBC0104FF6FF7101EAC0001D4908806C
:100AC00010BD01461B4A12884A434FF0E0235A6189
:100AD00000229A6101221A6100BF4FF0E0221069E2
:100AE00010F0010F02D010F4803FF6D000224FF03A
:100AF000E0231A619A61704701460D4A12784A4311
:100B00004FF0E0235A6100229A6101221A6100BF6E
:100B10004FF0E022106910F0010F02D010F4803F76
:100B2000F6D000224FF0E0231A619A61704700006E
:100B30002400002026000020014600BF704700BFAF
:100B4000494A128812F0400FFAD0C2B2464B1B1D20
:100B50001A80704710B586B00446012144F20500A2
:100B600000F02AFC4FF40070ADF8140003208DF85B
:100B7000160018208DF8170005A93C4800F06AF906
:100B80004FF48060ADF8140004208DF8170005A91B
:100B9000364800F05FF925208DF8000003208DF81D
:100BA00001008DF8020001208DF80300684600F076
:100BB00088F801940020ADF80800ADF80A00ADF8FF
:100BC0000C00ADF810000C20ADF80E0001A926486D
:100BD00001F0ABFB012240F22551234801F03DFC1E
:100BE0000121214801F02DFC06B010BD10B540F2E6
:100BF00025511D4801F016FD10B31B4801F092FC71
:100C0000C4B21B48007810F0800F2BD11848007830
:100C100010F0400F0CD00A2C03D0002014490870AB
:100C200020E01348007840F080001149087019E076
:100C30000D2C06D10E48007840F040000C49087099
:100C400010E00B48007800F03F000A490C540848B7
:100C50000078401C06490870084600783F2801DDEE
:100C60000020087010BD000000380140000801405D
:100C70002800002034130020094880470948004715
:100C8000FEE7FEE7FEE7FEE7FEE7FEE7FEE7FEE73C
:100C9000FEE7FEE704480549054A064B7047000099
:100CA00079020008ED000008D8130020D8190020B0
:100CB000D8150020D815002031490143314A116070
:100CC000704770B5002100230F22C4780CB32D4C5F
:100CD000246804F4E064C4F5E064210AC1F104036B
:100CE000CA40447804FA03F184781440214309018E
:100CF000254C0678A155047804F01F050124AC406A
:100D000005786D114FF0E02606EB8505C5F800412A
:100D100009E0047804F01F050124AC401B4D06785F
:100D2000761145F8264070BD194A0A400243154B1A
:100D30001B1F1A60704739B1124A121D1268024314
:100D4000104B1B1D1A6006E00E4A121D12688243EA
:100D50000C4B1B1D1A607047042808D14FF0E0218E
:100D6000096941F004014FF0E022116107E04FF002
:100D7000E021096921F004014FF0E0221161704780
:100D80000000FA050CED00E000E400E080E100E086
:100D900080FFFF1F10B50446CA48844208D10121D4
:100DA000042000F023FB0021042000F01FFB46E09C
:100DB000C548844208D10121082000F017FB00211A
:100DC000082000F013FB3AE0C048844208D101211A
:100DD000102000F00BFB0021102000F007FB2EE09C
:100DE000BB48844208D10121202000F0FFFA0021F5
:100DF000202000F0FBFA22E0B648844208D101210D
:100E0000402000F0F3FA0021402000F0EFFA16E055
:100E1000B148844208D10121802000F0E7FA002186
:100E2000802000F0E3FA0AE0AC48844207D10121B7
:100E3000801500F0DBFA0021A01500F0D7FA10BDF4
:100E400010B50121084600F0D1FA0021012000F080
:100E5000CDFA10BD2DE9F041024600250026002004
:100E600000230024002791F803C00CF00F0591F82F
:100E700003C01CF0100F03D091F802C04CEA050526
:100E800091F800C0BCF1000F31D0146800202BE0B5
:100E90004FF0010C0CFA00F3B1F800C00CEA0306A5
:100EA0009E4220D183004FF00F0C0CFA03F7BC4395
:100EB00005FA03FC4CEA040491F803C0BCF1280FC6
:100EC00006D14FF0010C0CFA00FCC2F814C00AE085
:100ED00091F803C0BCF1480F05D14FF0010C0CFA9A
:100EE00000FCC2F810C0401C0828D1D31460B1F82F
:100EF00000C0BCF1FF0F34DD546800202EE000F18B
:100F0000080C4FF0010808FA0CF3B1F800C00CEA25
:100F100003069E4221D183004FF00F0C0CFA03F719
:100F2000BC4305FA03FC4CEA040491F803C0BCF18D
:100F3000280F05D100F1080C08FA0CF8C2F814804B
:100F400091F803C0BCF1480F07D100F1080C4FF035
:100F5000010808FA0CF8C2F81080401C0828CED30B
:100F60005460BDE8F0814FF6FF710180022181706D
:100F70000421C17070470246002093680B4201D0E3
:100F8000012000E0002070470146886880B2704769
:100F900002460020D3680B4201D0012000E000206F
:100FA00070470146C86880B270470161704741616F
:100FB00070470AB1016100E041617047C16070474C
:100FC0004FF480320A438261816182618269826961
:100FD000704702460020424B18684FF68073184055
:100FE00040EA021008433E4B186070473D49C86113
:100FF0007047F0B50A46002300240021002500F0C8
:101000000046B6F1004F02D1354EF16901E0344E91
:101010007168C0F3034583B200F44016B6F5401F73
:1010200008D121F070612E4E766826F070662C4F44
:101030007E6012E000F48016B6F5801F06D103260C
:1010400006FA05F4A14341F0706106E0460D360151
:1010500003FA06F6B14341F0706122B1460D360144
:1010600003FA06F6314300F00046B6F1004F02D114
:101070001B4EF16101E01A4E7160F0BD30B50022E7
:101080008B071C0F0F2303FA04F2154B08338C1047
:1010900053F824309343124C08348D1044F8253013
:1010A00023468C1053F824308C07240F00FA04F4E4
:1010B00023430B4C08348D1044F8253030BD0A49C9
:1010C0000860704700080140000C0140001001401A
:1010D0000014014000180140001C014000200140A4
:1010E0000000014000002042DC002042DB48006894
:1010F00040F00100D949086008464068D8490840D6
:10110000D649486008460068D6490840D349086077
:101110000846006820F4802008600846406820F4F3
:10112000FE0048604FF41F0088607047CB49096893
:1011300021F48031C94A11601146096821F48021E7
:101140001160B0F5803F03D0B0F5802F0ED106E0DE
:10115000C249096841F48031C04A116007E0BF49C3
:10116000096841F4A021BD4A116000E000BF00BF42
:10117000704710B501460022002300204A11012AC1
:1011800002D1B64C236806E0022A02D1B34C236A8E
:1011900001E0B24C636A01F01F02012494401C423A
:1011A00001D0012000E0002010BD70B50024002512
:1011B000002600BF3120FFF7DCFF0646641CB4F5B3
:1011C000A06F01D0002EF5D03120FFF7D2FF08B17B
:1011D000012500E00025284670BD014600209F4AF9
:1011E000106820F0F80040EAC100106070479E4986
:1011F0000860704702460020984B586820F47C1025
:1012000042EA01031843954B5860704796490866B7
:10121000704701460020914A506820F003000843BF
:10122000506070478D48406800F00C0070470146E0
:1012300000208A4A506820F0F00008435060704750
:1012400001460020854A506820F4E0600843506061
:10125000704701460020814A506820F4605040EAFF
:10126000C1005060704729B17C4A527A02437B4BDF
:101270005A7204E0794A527A8243784B5A72704724
:101280007A490860704701460020744A506820F48B
:1012900040400843506070470021754A11706F4A02
:1012A00082F82010012802D0042808D103E001218F
:1012B0006F4A117004E005216D4A117000E000BF13
:1012C00000BF70476B49086070476449096A014371
:1012D000624A11627047674944390860704730B507
:1012E00000210022002400235C4D6D6805F00C01F4
:1012F00021B1042905D0082923D105E05E4D056000
:1013000022E05D4D05601FE0544D6D6805F47012DC
:10131000524D6D6805F48034022505EB92421CB9EC
:10132000564D554305600BE04C4D6D6815F4003F7C
:1013300003D0524D5543056002E04F4D55430560C3
:1013400002E04D4D056000BF00BF444D6D6805F0E3
:10135000F00109094A4D6B5C0568DD4045603F4D71
:101360006D6805F4E061090A454D6B5C4568DD4038
:1013700085603A4D6D6805F46051C90A404D6B5C5B
:101380004568DD40C560354D6D6805F44041890B09
:101390003C4D6B5CC568B5FBF3F5056130BD29B10B
:1013A0002E4A526902432D4B5A6104E02B4A52697E
:1013B00082432A4B5A61704729B1284A92690243F5
:1013C000264B9A6104E0254A92698243234B9A6135
:1013D000704729B1214AD2690243204BDA6104E007
:1013E0001E4AD26982431D4BDA61704729B11B4AFC
:1013F000D2680243194BDA6004E0184AD26882438B
:10140000164BDA60704729B1144A12690243134B34
:101410001A6104E0114A12698243104B1A61704745
:1014200014494039086070470F49C86470470B4938
:10143000C87170470948406A40F0807007494862A7
:10144000704701460020054A92680A4201D00120F7
:1014500000E0002070470149887270470010024088
:101460000000FFF8FFFFF6FE00004242D8004242B3
:10147000201002408004424200127A0000093D0020
:10148000300000204000002010B50446FE48844291
:1014900008D10121C014FFF7A9FF0021E014FFF7D4
:1014A000A5FFC4E0B4F1804F08D101210846FFF741
:1014B000AAFF00210120FFF7A6FFB8E0F34884420D
:1014C00008D101210220FFF79EFF00210220FFF733
:1014D0009AFFACE0EE48844208D101210420FFF7D6
:1014E00092FF00210420FFF78EFFA0E0E94884422C
:1014F00008D101210820FFF786FF00210820FFF70F
:1015000082FF94E0E448844208D101211020FFF7D3
:101510007AFF00211020FFF776FF88E0DF48844241
:1015200008D101212020FFF76EFF00212020FFF7C6
:101530006AFF7CE0DA48844208D101214014FFF7B9
:1015400055FF00216014FFF751FF70E0D548844239
:1015500009D10121C804FFF749FF00214FF4002001
:10156000FFF744FF63E0D048844209D10121080518
:10157000FFF73CFF00214FF48010FFF737FF56E0E4
:10158000CA48844209D101214805FFF72FFF0021F5
:101590004FF40010FFF72AFF49E0C548844208D104
:1015A00001214020FFF72FFF00214020FFF72BFFF4
:1015B0003DE0C048844208D101218020FFF723FF8D
:1015C00000218020FFF71FFF31E0BB48844208D193
:1015D00001218015FFF717FF0021A015FFF713FF6A
:1015E00025E0B648844209D101210804FFF7FEFE38
:1015F00000214FF48030FFF7F9FE18E0B048844234
:1016000009D101214804FFF7F1FE00214FF4003019
:10161000FFF7ECFE0BE0AB48844208D101218804BF
:10162000FFF7E4FE00214FF48020FFF7DFFE10BD3E
:1016300000220288944B98420ED0994B98420BD0CE
:10164000B0F1804F08D0914B984205D0904B984212
:1016500002D0904B984204D14FF68F731A404B88BA
:101660001A438D4B984207D08C4B984204D04FF6CA
:10167000FF431A40CB881A4302808B8883850B88EE
:101680000385814B98420BD0854B984208D08B4BF9
:10169000984205D08A4B984202D08A4B984201D199
:1016A0000B7A038601238382704770B500240022E1
:1016B0000023058C4FF6FE7635400584028C838826
:1016C000048B4FF68F752C40B51E2C400D882C4393
:1016D000751E2A400D892A434D882A436A4DA84227
:1016E0000BD06F4DA84208D0744DA84205D0744D60
:1016F000A84202D0734DA84213D14FF6F7752A4085
:101700004D892A434FF6FB752A408D882A434FF6B0
:10171000FF652B404FF6FF552B408D892B43CD891C
:101720002B4383800483CD888586028470BD70B589
:10173000002400220023058C4FF6EF763540058407
:10174000028C8388048B48F6FF752C404FF6FF45CA
:101750002C400D884FF6FF7606EA05252C434FF600
:10176000DF752A400D8906EA05152A434D8806EAE9
:1017700005152A43444DA84202D0494DA8421DD127
:101780004FF67F752A404D894FF6FF7606EA05151C
:101790002A434FF6BF752A408D8806EA05152A436D
:1017A0004FF6FF352B404FF2FF752B408D8906EA2F
:1017B00085052B43CD8906EA85052B438380048369
:1017C000CD880587028470BD70B5002400220023F7
:1017D000058C4FF6FF6635400584028C8388848B28
:1017E0004FF68F752C404FF6FC752C400D882C431E
:1017F0004FF6FF552A400D894FF6FF7606EA05257C
:101800002A434D8806EA05252A431F4DA84202D0E7
:10181000234DA8421DD14FF2FF752A404D894FF646
:10182000FF7606EA05252A434FF6FF352A408D88C4
:1018300006EA05252A434EF6FF752B404DF6FF7547
:101840002B408D8906EA05152B43CD8906EA05153F
:101850002B4383808483CD888587028470BD70B5D7
:10186000002200230024058C4EF6FF7635400584C7
:10187000038C8488828B48F6FF752A404FF6FF451B
:101880002A400D8820E00000002C014000040040A8
:1018900000080040000C0040001000400014004010
:1018A00000340140004C0140005001400054014010
:1018B00000180040001C0040002000400040014093
:1018C00000440140004801404FF6FF7606EA052536
:1018D0002A434DF6FF752B400D8906EA05352B434B
:1018E0004D8806EA05352B43FA4DA84202D0FA4D41
:1018F000A84208D14BF6FF752C408D894FF6FF7634
:1019000006EA85152C4384808283CD88A0F8405058
:10191000038470BD828B4FF2FF331A408283828B27
:101920004FF6FF7303EA01231A4382837047F0B531
:101930000C461546002200210026078C4EF6FF7C3F
:1019400007EA0C070784828B018C4FF6FF7707EAC2
:10195000043640F6FF473A404FF6FF7707EA05277F
:101960003A434FF6FF7707EA03373A43D94FB84275
:101970000ED0D94FB8420BD0B0F1804F08D0D74F1E
:10198000B84205D0D64FB84202D0D64FB84206D1A1
:101990004DF6FF77394046F48057394305E047F666
:1019A000FF57394044F48057394382830184F0BDA6
:1019B000828B4FF6F3731A408283828B0A438283B1
:1019C0007047F0B50C461546002200210026078C12
:1019D0004FF6FF6C07EA0C070784828B018C4FF6E9
:1019E000FF7707EA04264FF60C773A404FF6FF7769
:1019F00007EA03172F433A43B64FB8420ED0B64F0B
:101A0000B8420BD0B0F1804F08D0B44FB84205D0E7
:101A1000B34FB84202D0B34FB84206D14FF6FF578A
:101A2000394046F48077394305E04FF2FF5739409B
:101A300044F48077394382830184F0BD028B4FF2F6
:101A4000FF331A400283028B4FF6FF7303EA012330
:101A50001A4302837047F0B50C4615460022002158
:101A60000026078C4FF6EF7C07EA0C070784028BF1
:101A7000018C4FF6FF7707EA041640F6FF473A401D
:101A80004FF6FF7707EA03373A434FF6FF7707EA47
:101A900005273A438F4FB8420ED08F4FB8420BD034
:101AA000B0F1804F08D08D4FB84205D08C4FB8426E
:101AB00002D08C4FB84206D14FF6DF77394046F05E
:101AC0001007394305E04FF65F77394044F01007BF
:101AD000394302830184F0BD028B4FF6F3731A4041
:101AE0000283028B0A4302837047F0B50C46154609
:101AF00000220021068C4FF6FE773E400684028BC2
:101B0000018C4FF60C7632407E1C06EA03162E43FB
:101B10003243704EB0420ED06F4EB0420BD0B0F197
:101B2000804F08D06D4EB04205D06D4EB04202D00D
:101B30006C4EB04206D14FF6FD76314044F00106BE
:101B4000314305E04FF6F576314044F0010631436C
:101B500002830184F0BD70B505460C465D488542A0
:101B60000ED05D4885420BD0B5F1804F08D05B4860
:101B7000854205D05A48854202D05A48854200D154
:101B800000E000BF208850B92389A28861882846D8
:101B9000FFF7ABFFE1882846FFF79EFF25E020888E
:101BA00004280AD12389A28861882846FFF753FFB9
:101BB000E1882846FFF742FF17E0208808280AD16D
:101BC0002389A28861882846FFF7FBFEE188284622
:101BD000FFF7EEFE09E02389A28861882846FFF717
:101BE000A6FEE1882846FFF795FE70BD2DE9F0417D
:101BF00005460C4600260127608808B9022600E049
:101C00000026A088012801D1022700E001272088B2
:101C1000A0B92389A28861882846FFF766FFE1887A
:101C20002846FFF759FF23893A4631462846FFF7F1
:101C300012FFE1882846FFF701FF13E02389A288FD
:101C400061882846FFF707FFE1882846FFF7F6FE80
:101C500023893A4631462846FFF747FFE188284660
:101C6000FFF73AFFBDE8F0810A884B881A438B885A
:101C70001A43CB881A430B891A434B891A438B8921
:101C80001A43A0F8442070474FF6FF71818000216D
:101C90000180C18041800172704700210180418034
:101CA0008180C180018141818181C1817047002192
:101CB00001804180012181800021C1800181704724
:101CC0000021018041808180C18001814181818129
:101CD00070470000002C0140003401400004004027
:101CE00000080040000C004021B1028842F00102CF
:101CF000028004E002884FF6FE731A4002807047AB
:101D000031B1B0F8442042F40042A0F8442005E08C
:101D1000B0F84420C2F30E02A0F8442070471AB174
:101D200083890B43838102E083898B4383817047DE
:101D30008182704741EA0203A0F8483070471AB127
:101D400083890B43838102E083898B4383817047BE
:101D500001894FF6F8721140018170470A4600214F
:101D600001894FF68F73194011430181704730B5D7
:101D700004460D4629462046FFF7F0FF208940F033
:101D80000700208130BD2DE9F04104460D4616467E
:101D90001F46602D06D13B46012231462046FFF703
:101DA0005AFE05E03B46012231462046FFF79DFEE4
:101DB00029462046FFF7D2FF208940F00700208106
:101DC000BDE8F08130B50C4600210189C9B24FF65B
:101DD000FF7505EA0325154325432943018130BDDD
:101DE0002DE9F04105460E46174698460024434625
:101DF0003A4631462846FFF7E5FF2C894FF6F87042
:101E0000044044F007044FF68F70044044F070041F
:101E10002C81BDE8F081F0B504460D4616461F46FC
:101E20003B46324629462046FFF7CCFF208940F446
:101E300080402081F0BD0185828270470A460021E2
:101E400001884FF68F731940114301807047F0B538
:101E50000C4615461E460021002200230189028BF4
:101E6000038C4FF6F877394021434FF6FC473A4050
:101E700040F201173A434FF6DD773B404FF6FF77CC
:101E800007EA06172F433B43018102830384F0BD19
:101E90000A460021018B4FF68F73194011430183CD
:101EA00070470A460021018B48F6FF7319404FF630
:101EB000FF7303EA02231943018370470A46002196
:101EC000818B4FF68F7319401143818370470A4607
:101ED0000021818B48F6FF7319404FF6FF7303EA28
:101EE000022319438183704721B1028842F08002A6
:101EF000028004E002884FF67F731A400280704728
:101F000021B1828842F00402828004E082884FF688
:101F1000FB731A408280704721B1828842F0080228
:101F2000828004E082884FF6F7731A4082807047FF
:101F300021B1828842F00102828004E082884FF65B
:101F4000FE731A40828070470A460021018B4FF6CB
:101F5000F77319401143018370470A460021018B32
:101F60004FF2FF7319404FF6FF7303EA0223194340
:101F7000018370470A460021818B4FF6F7731940A1
:101F80001143818370470A460021818B4FF2FF7312
:101F900019404FF6FF7303EA022319438183704708
:101FA0000A460021018B4FF6FB7319401143018350
:101FB00070470A460021018B4FF6FF3319404FF658
:101FC000FF7303EA02231943018370470A46002185
:101FD000818B4FF6FB7319401143818370470A468A
:101FE0000021818B4FF6FF3319404FF6FF7303EA50
:101FF00002231943818370470A460021018B4FF663
:102000007F7319401143018370470A460021018BF9
:10201000C1F30E014FF6FF7303EA02231943018354
:1020200070470A460021818B4FF67F731940114398
:10203000818370470A460021818BC1F30E014FF660
:10204000FF7303EA02231943818370470A46002184
:10205000018C4FF6FD7319401143018470470A4605
:102060000021018C4FF6F77319401143018470472A
:102070000A460021018C4FF6DF7319404FF6FF73BB
:1020800003EA02131943018470470A460021018CB8
:102090004FF67F7319404FF6FF7303EA021319439B
:1020A000018470470A460021018C4FF6FF53194006
:1020B0004FF6FF7303EA02231943018470470A466F
:1020C0000021018C4FF2FF7319404FF6FF7303EAB2
:1020D00002231943018470470A460021018C4DF602
:1020E000FF7319404FF6FF7303EA0233194301846B
:1020F000704730B5002301248C40A3B2048C9C436C
:102100000484048C02FA01F5ADB22C43048430BD82
:1021100030B5002304248C40A3B2048C9C43048477
:10212000048C02FA01F5ADB22C43048430BD70B5C5
:102130000346002000241846183001258D40ACB21B
:102140001D8CA5431D8409B1082909D100EB61004C
:10215000056825F0700505600568154305600EE00B
:102160000D1FC5F34E052844056825F4E0450560BC
:1021700005684FF6FF7606EA02263543056070BD16
:1021800021B1028842F00202028004E002884FF688
:10219000FD731A400280704721B1028842F00402A8
:1021A000028004E002884FF6FB731A4002807047F9
:1021B00021B1828842F08002828004E082884FF65A
:1021C0007F731A408280704702884FF6F7731A4077
:1021D000028002880A430280704782884FF68F731C
:1021E0001A40828082880A438280704702894FF6B3
:1021F000F8731A40028102890A43028170470289FA
:102200004FF67F731A40028102890A4302817047A8
:102210008184704781857047818670470187704748
:1022200081877047A0F84010704702884FF6FF433F
:102230001A40028002880A43028070470146888E55
:1022400070470146088F70470146888F70470146E6
:10225000B1F8400070470146888C70470146088DF0
:10226000704702460020138A0B4201D0012000E093
:1022700000207047CA430282704730B502460020F2
:1022800000230024158A05EA0103958905EA010463
:1022900013B10CB1012000E0002030BDCA4302821E
:1022A0007047000010B50446FB48844209D1012163
:1022B0008803FFF79BF800214FF48040FFF796F862
:1022C00032E0F648844209D101214804FFF79BF827
:1022D00000214FF40030FFF796F825E0F0488442E3
:1022E00009D101218804FFF78EF800214FF48020E6
:1022F000FFF789F818E0EB48844209D10121C804AE
:10230000FFF781F800214FF40020FFF77CF80BE085
:10231000E548844208D101210805FFF774F800213F
:102320004FF48010FFF76FF810BD2DE9F04786B02D
:1023300005460E460024A24600BFA1460027B089EC
:1023400000B100BF2F462C8A4CF6FF700440F08885
:1023500004432C82AC894EF6F3100440B0883189D6
:102360000843718908430443AC81AC8A4FF6FF40AF
:102370000440B0890443AC8201A8FEF7B0FFC64810
:10238000874202D1DDF810A001E0DDF80CA0A88999
:1023900010F4004F08D00AEBCA0000EB0A103168B5
:1023A0004900B0FBF1F807E00AEBCA0000EB0A10A5
:1023B00031688900B0FBF1F86420B8FBF0F004014B
:1023C0002009642101FB1089A88910F4004F08D06E
:1023D000322000EBC900B0FBF1F000F0070004432D
:1023E00008E0322000EB09106421B0FBF1F000F0AE
:1023F0000F0004432C8106B0BDE8F0874FF416515E
:10240000016000218180C18001810C214181002176
:102410008181704710B502460020108A4FF2FF03F9
:1024200018400B884C8823438C882343CC88234353
:102430001843108210BD0021018041808180C1803D
:10244000704721B1828942F40052828104E082897E
:102450004DF6FF731A4082817047F0B503460024A1
:10246000002600250020A1F510676A3F00D100BFBB
:102470001846C1F3421401F01F06012707FA06F5BA
:10248000012C01D10C3004E0022C01D1103000E00D
:1024900014301AB107682F43076002E00768AF43A2
:1024A0000760F0BD1AB1838A0B43838202E0838AFE
:1024B0008B4383827047028A4FF6F0731A40028280
:1024C000028A0A430282704782894FF2FF731A40E0
:1024D000828182890A438281704721B1828942F0D8
:1024E0000202828104E082894FF6FD731A408281E4
:1024F0007047028A4FF6DF731A400282028A0A434B
:102500000282704721B1028A42F48042028204E0D2
:10251000028A4BF6FF731A4002827047C1F3080229
:102520008280704701468888C0F30800704781891F
:1025300041F0010181817047028BD2B20283028B8C
:1025400042EA012202837047028B02F47F42028337
:10255000028B0A430283704721B1828A42F0200233
:10256000828204E0828A4FF6DF731A4082827047CB
:1025700021B1828A42F01002828204E0828A4FF600
:10258000EF731A408282704721B1828A42F00802BA
:10259000828204E0828A4FF6F7731A408282704783
:1025A00021B1828942F40042828103E08289C2F330
:1025B0000E028281704721B1828A42F400628282D7
:1025C00004E0828A4FF2FF731A4082827047828A47
:1025D0004FF6FB731A408282828A0A4382827047D6
:1025E00021B1828A42F00202828204E0828A4FF69E
:1025F000FD731A408282704702460020B1F5007FC9
:1026000000D100BF13880B4201D0012000E0002060
:10261000704701F40072B2F5007F00D100BFCA43D9
:102620000280704770B50246002400230025002078
:10263000A1F510666A3E00D100BFC1F3421501F05A
:102640001F03012606FA03F3012D02D196893340B8
:1026500006E0022D02D1168A334001E0968A33400B
:102660000C12012606FA04F41688344013B10CB19A
:10267000012000E0002070BD10B500220023A1F56C
:1026800010646A3C00D100BF0A1201249440A3B236
:10269000DC43048010BD00000038014000440040CD
:1026A00000480040004C00400050004070470000CF
:1026B0000FB4044910B503AA029800F0A3F910BCA6
:1026C0005DF814FB2C0000202DE9F04104460E4675
:1026D000002020622046E168884738B3252806D0CC
:1026E000D4E901219047206A401C2062F2E7E168AA
:1026F000204600278847050018D0A5F14100192879
:1027000002D820354FF4006732462946204627601C
:10271000FDF726FD40B1012804D0F61D26F007067E
:102720000836D7E7361DD5E72846D9E7206ABDE841
:10273000F08100002DE9F04106460024106875295B
:10274000314616A511D0AFF30080002803DAC0F19E
:10275000000013A507E031688A0701D511A502E042
:10276000490704D510A5012401E0AFF30080002142
:102770000A2306F1240707E0B0FBF3F203FB120083
:10278000303078541046491C0028F5D123462A469B
:102790003046BDE8F04100F0D9B80000000000006C
:1027A0002D0000002B0000002000000070B5044642
:1027B0000D4621461068AFF300802188090502D537
:1027C000104A7A4402E00F4A7A440E32002104F1A2
:1027D000240307E000F00F064FEA1010965D5E54E8
:1027E00001F101010028F5D103462078000704D546
:1027F000702D02D009B1113202232046BDE870408D
:1028000000F0A4B8C65F0000032A40F2308010F048
:10281000030C00F0158011F8013BBCF1020F62447B
:1028200098BF11F801CB00F8013B38BF11F8013B0C
:10283000A2F1040298BF00F801CB38BF00F8013BB9
:1028400011F0030300F02580083AC0F0088051F829
:10285000043B083A51F804CBA0E80810F5E7121D34
:102860005CBF51F8043B40F8043BAFF30080D20753
:1028700024BF11F8013B11F801CB48BF11F8012B1F
:1028800024BF00F8013B00F801CB48BF00F8012B42
:10289000704710B5203AC0F00B80B1E81850203ACC
:1028A000A0E81850B1E81850A0E81850BFF4F5AFF0
:1028B0005FEA027C24BFB1E81850A0E8185044BF7A
:1028C00018C918C0BDE810405FEA827C24BF51F8E7
:1028D000043B40F8043B08BF7047D20728BF31F8DB
:1028E000023B48BF11F8012B28BF20F8023B48BF2C
:1028F00000F8012B70474FF0000200B513469446D4
:102900009646203922BFA0E80C50A0E80C50B1F147
:102910002001BFF4F7AF090728BFA0E80C5048BF5B
:102920000CC05DF804EB890028BF40F8042B08BFF9
:10293000704748BF20F8022B11F0804F18BF00F8F5
:10294000012B704770477047704770472DE9F0477B
:102950000D4699469246044600F12408016888060F
:1029600004D5E06921F01001216000E00120A842B7
:1029700002DDA0EB050700E00027A16907EB0502D7
:1029800002EB0900A1EB0000A0612078C00602D490
:102990002046AFF30080002608E0D4E901211AF8B0
:1029A00006009047206A401C761C20624E45F4DBEE
:1029B0002078C0060AD52046AFF3008006E0D4E9AF
:1029C000012130209047206A401C2062381EA7F168
:1029D0000107F4DC07E0D4E9012118F8050090476D
:1029E000206A401C2062281EA5F10105F3DC204668
:1029F000AFF300802078000602D50220BDE8F08702
:102A00000120FBE7074B70B50D467B4400F011F841
:102A10000446284600F020F810B14FF0FF3070BD9A
:102A2000204670BD31E1FFFF01694A1C0261087850
:102A3000704700B58FB0CDE90131002105910549FE
:102A40007944CDE9031011466846FFF73DFE0FB00B
:102A500000BD0000E5FFFFFF007B00F08000704735
:102A6000754600F029F8AE4605006946534620F049
:102A70000700854618B020B5FEF70CF9BDE82040E8
:102A80004FF000064FF000074FF000084FF0000B2A
:102A900021F00701AC46ACE8C009ACE8C009ACE8DD
:102AA000C009ACE8C0098D4670470446AFF300800A
:102AB0002046FDF76AFB00000048704774130020B1
:102AC0002DE9F80FBF4B4FF0010C4FF00508C3F88C
:102AD00008C0D3F808C0D3F800C0CDF800C01CF17E
:102AE000010C09D04368D2F804C0006883EA0C07DF
:102AF000136843409C4610E0DDF800C0C3F800C0F6
:102B00001B6800935BB14368D2F804C0006883EA95
:102B10000C07136880EA030C634664460FE0036801
:102B2000D2F800C0946883EA0C074368D2F804C066
:102B300083EA0C0C8368C0686340D4684440A248B0
:102B40003D0ECCF3074650F8255050F8266004F0AF
:102B5000FF0985EA3625C3F3072650F8299050F877
:102B6000266007F0FF0A4FEA364686EA39666E406D
:102B70001569C3F307496E404FEA1C6550F8299068
:102B800050F8255050F82AA085EA3925C4F30729C2
:102B90000CF0FF0B50F82990CCF3072C4FEA394981
:102BA00089EA3A6985EA0905D2F81490C4F3074A1C
:102BB00085EA09054FEA136950F82AA050F82990D0
:102BC000240E89EA3A29C7F3072AC7F30747DBB27D
:102BD00050F82AA050F82CC050F82BB050F82440E0
:102BE00050F8277050F823304FEA3A4A4FEA3C4CED
:102BF0008AEA3B6A84EA37248CEA336389EA0A0961
:102C000084EA030CD2F818A0D3692032A8F1010895
:102C100089EA0A098CEA0304B8F1000F69DD330E72
:102C2000C5F3074C50F8233050F82CC0E7B283EAC4
:102C30003C23C9F3072C50F8277050F82CC006F03D
:102C4000FF0A4FEA3C4C8CEA376C83EA0C03D2F85B
:102C500000C050F82AA083EA0C072B0EC9F3074CDA
:102C600050F8233050F82CC005F0FF0B83EA3C23CA
:102C7000C4F3072CC5F3072550F82CC050F8255095
:102C80004FEA3C4C8CEA3A6C83EA0C03D2F804C05D
:102C9000C4F3074A83EA0C0C4FEA196350F82AA0E0
:102CA00050F82330240E83EA3A23C6F3072AC6F3EA
:102CB000074650F8244050F8266050F82AA084EACD
:102CC00036244FEA354609F0FF0550F82BB050F88E
:102CD00025504FEA3A4A8AEA3B6A86EA356583EA32
:102CE0000A036C40D2F808A0D56883EA0A036C4056
:102CF00026E73648E3B200EB166CC35C9CF800C0D4
:102D0000C9F3072743EA0C63C5F3074CC75D10F806
:102D10000CC04FEA0C4C4CEA072C43EA0C03D2F8E7
:102D200000C0C4F3072783EA0C030B60F3B200EB87
:102D3000156CC35C9CF800C0C75D43EA0C63C9F323
:102D4000074C10F80CC04FEA0C4C4CEA072C43EA35
:102D50000C03D2F804C0C6F3072783EA0C034B60C8
:102D6000EBB200EB196CC35C9CF800C0C75D43EA92
:102D70000C6CC4F30743C35C1B0443EA07234CEA0F
:102D80000303D2F808C083EA0C038B6009F0FF0349
:102D900000EB146CC35C9CF800C0C5F3072443EA45
:102DA0000C63C6F3074CD26810F80CC0005D4FEA04
:102DB0000C4C4CEA002018435040C860BDE8F80FA6
:102DC00070470000003002401C720008F46F0008D9
:102DD0002DE9F003D0E900C38268C068184CC1E94E
:102DE0000220E1E804C30A26A4F5007505EB10678C
:102DF000C0F307483F7815F8088000F0FF0947EA5C
:102E00000867C0F3072815F8099015F808804FEAFD
:102E1000084848EA092847EA080787EA0C0C54F8EA
:102E2000047B8CEA070C83EA0C035A405040C1E94A
:102E30000220E1E804C3761ED8D1BDE8F003704754
:102E4000F47100082DE9F8430024884600940646F2
:102E5000817998F8060091461D46814288BF084650
:102E6000411C1A46684603F044FD00281CBF40F28E
:102E7000ED30BDE8F8834146304600F007FAC01C4B
:102E80000127072862D2DFE800F03E2D25352D25E9
:102E900004004046009900F04DFA00993046CC718C
:102EA00000F0F4F9B0F1FF3F04D000284BD0022825
:102EB0004CD107E031464046009A03F0C2FD00982D
:102EC000C77143E041463046009A03F0BAFD0098CE
:102ED000C4713BE041463046009A00F053F8009838
:102EE000C47133E041463046009A00F04BF8009838
:102EF000C7712BE041463046009A00F043F8009934
:102F0000F079C87122E03046009900F013FA009879
:102F10004146C47100F0BAF9B0F1FF3F03D090B15F
:102F2000022813D107E031464046009A03F089FD9C
:102F30000098C4710AE041463046009A03F081FDD2
:102F40000098C77102E0009803F0B0FC00214846E9
:102F500001F05EFE4946009800F0ECF90099002966
:102F600014BF002DBDE8F883EA8889796FF0030368
:102F7000494203EB810111440839E9800094BDE81E
:102F8000F88300002DE9F84F0B46D0F800B009682F
:102F900000910025B0F804C09E88176891462C4621
:102FA000B44598BF664681794FF0010E4FF0000896
:102FB0008C4532D8A1EB0C01002201F1010ABAF1D3
:102FC000000F2ADD3EEA01011CBF4BF82C800122D4
:102FD00090F806C0B0F804A0ACEB0A0C0CF1010CA0
:102FE0008C451AD91FFA8AFAD0F800C09244521CB4
:102FF0004CF82A80B0F804A0D0F800C09244521CCB
:103000004CF82A8090F806C0B0F804A0891CACEBFC
:103010000A0C0CF1010C8C45E4D8B3F804C0997982
:103020008C4534D8A1EB0C01002201F1010ABAF160
:10303000000F2CDD3EEA010103D01A6842F82C8013
:10304000012293F806C0B3F804A0ACEB0A0C0CF113
:10305000010C8C451BD900BF1FFA8AFAD3F800C0B7
:103060009244521C4CF82A80B3F804A0D3F800C054
:103070009244521C4CF82A8093F806C0B3F804A07E
:10308000891CACEB0A0C0CF1010C8C45E4D881884E
:103090009A889142494638BF184600F04BF9002EF5
:1030A00048D00098ABF10403021F391F16F0010F3E
:1030B0000DD053F804CF52F8040F1CEB000048EB7E
:1030C000080C40194CEB040541F8040F44465FEA34
:1030D000560C1BD0D3F804A050681AEB000048EB44
:1030E000080A45194D604AEB040053F808AF52F83E
:1030F000085F1AEB050548EB0804281844EB08059F
:1031000041F8080F4446BCF1010CE3D195B157F8E2
:103110002600401C47F8260007E0761C07EB8600D7
:103120000168491C016057F8260018B9B9F8040075
:10313000B042F2D2B9F8040057F8201000291CBFA1
:10314000401CA9F80400BDE8F88F000070B4858821
:103150000468012D02BF2368002B012312D0AB00AD
:103160006FF0030606EB85054FF07F4C54F80540E1
:1031700014EA0C0F06D1BCF1000F1CBF4FEA1C2C47
:103180005B1EF5D1DC174FF0000C03EB94740CE0E0
:103190000568CCF1000603EB860655F82C500E446A
:1031A0002DBA46F8045C0CF1010CBCEBA40FEFDB6C
:1031B00013F0030F1FD0006803F0030503F00304AE
:1031C00050F82C0013F0010C03D00D4405F8010C4D
:1031D000000AA4EB0C0CBCF1000F0CDD01EB0C049D
:1031E000ACF1020C04F8010C000A04F8020C000A0D
:1031F000BCF1000FF2DC002A18BF136070BC7047EE
:10320000002812BF002941F2B8407047F8B50F46B8
:10321000818800241646012905D102681268002A17
:1032200008BF012312D08B006FF00305026805EB85
:1032300081014FF07F4C555815EA0C0F06D1BCF1B7
:10324000000F1CBF4FEA1C2C5B1EF5D10093B3424C
:10325000C4BF41F2B540F8BDB919C91A6A46FFF7B3
:1032600075FF0098311A00290EDD781E11F0010F4C
:1032700018BF00F8014F0099711A491004D044702A
:1032800000F8024F491EFAD10020F8BD70B490F941
:1032900007C091F9072094453FD183888C8801228B
:1032A000A34204BF0068096803D9BCF1000F27D00E
:1032B00022E003D2BCF1000F2BD027E09D1AA61A02
:1032C00050F8255051F82660B54204D1934224BFEE
:1032D000521C9342F2D2551EAB4202BF002070BC7A
:1032E00070479B1AA21A50F8230051F82210884206
:1032F00009D9BCF1000F03D070BC6FF0010070471A
:1033000070BC02207047BCF1000F02D070BC0120DD
:10331000704770BC4FF0FF307047BCF1010F05D112
:10332000002A02BF6FF0020070BC7047032070BC1F
:103330007047000070B483888A7900249A4209D2C9
:1033400002F1010C9C4537BF41F2B54041F2B54452
:1033500070BC7047C279CA7100228B80002B09DDD6
:10336000D0F800C00D685CF822C045F822C0521C9D
:103370009342F5DC8879801A431C002B26DD01235B
:103380004FF0000C33EA0000634605D0D1F800C0CE
:103390004CF822304FF0010C8D79AD1A6D1C85422E
:1033A00014DD00BF0D6802EB0C060CF1010C45F8B2
:1033B00026300D6802EB0C06801C45F826308D790E
:1033C0000CF1010CAD1A6D1C8542EBDC204670BC83
:1033D000704782880368012A01BF1868002801200D
:1033E000704750016FF0030C0CEB82024FF000416C
:1033F0009A5831EA02031EBF00294908401EF8D13D
:10340000704701214020FDF7CABF00002DE9F04FB1
:10341000ADF5017D91460D4680461E46B0225A49C3
:1034200050A8FFF736FA0024202E1EBF6FF00300CD
:103430000DF5017DBDE8F08F05F1190717F00F0FAD
:1034400004D007F00F00C0F11004274428BA0490FC
:1034500030BA05902A4641466E4606A8FFF7D4F9D1
:10346000802170194FF0000801766CB1183014F00B
:10347000010F18BF00F8018F610805D080F80180A6
:1034800000F8028F491EF9D1CDF80080CDF80480F4
:10349000CDF80C800024CDF808800DF5A07B6E4699
:1034A0001CADCDF87080CDF87480CDF87880CDF863
:1034B0007C80B8EB171F38BF0DF5F87A17D20020C3
:1034C0005FEA041101EB800255F82030B25812BABD
:1034D0005A404AF82020401C0428F3D35A46294673
:1034E0007CA8FFF7EDFA641CB4EB171FE7D39DF837
:1034F00003000024401C8DF803000DF5A07B6E46F0
:103500000DF1700A20ADCDF88080CDF88480CDF823
:103510008880CDF88C80B8EB171F38BF0DF5F87890
:1035200017D200205FEA041101EB800255F8203029
:10353000B25812BA5A4048F82020401C0428F3D34D
:103540005A4629467CA8FFF7BBFA641CB4EB171F48
:10355000E7D324A91CA8FFF73BFC24AA49460AF19B
:103560001000FFF7ADFA99E80F0020AC0FC424AAB1
:1035700009F110010AF11000FFF7A2FA0DF5017D23
:103580000020BDE8F08F00009C8600082DE9F04186
:1035900088B016468846044600256F46E068401C01
:1035A000E0600AD1A068401CA06006D16068401CA1
:1035B000606002D12068401C206007EB0511424684
:1035C0002046FFF77DFA6D1C022DE7DB009831687D
:1035D0004840206101987168484060610298B16874
:1035E0004840A0610398F1684840E061049831695F
:1035F0004840206005987169484060600698B1694C
:103600004840A0600798F1694840E06008B0BDE814
:10361000F08130B504000D464FF0000018BF002DBA
:1036200027D0216800291CBFA168002921D0296862
:1036300000291FBF6A68002AAA68002A19D0227BC5
:103640002A73227B12F0020F18BF30BD2068FFF7EB
:1036500071FE002818BF30BD69686068FFF76AFE18
:10366000002818BF30BDA968A068BDE83040FFF74A
:1036700061BE41F2544030BD002812BF002941F222
:103680005440704730B50446006B0D4600281FBFFC
:10369000016800298168002904BF41F2534030BD10
:1036A000294603F047F9206B2946083003F042F918
:1036B000206BC16819B10C30294603F03BF9206B2F
:1036C000416819B1001D294603F034F9206B0169E6
:1036D00019B11030294603F02DF9206B416919B159
:1036E0001430294603F026F9E8881838E8800020CD
:1036F000206330BD002812BF002941F254407047BA
:1037000030B5044600680D46002804BF41F253401E
:1037100030BD083003F00EF920682946001D03F083
:1037200009F92946206803F005F9E8881038E8808F
:103730000020206030BD002812BF002941F2544013
:10374000704730B5054600680C46002804BF41F2BA
:10375000564030BD03F0EEF8E088001FE080002006
:10376000286030BD38B5144600221D46009200285E
:1037700018BF002C20D0002D1CBF0268002A1BD0CF
:103780004368002B1CBF8368002B15D092799200F0
:103790002A60A1B1012917D0022918BF41F2544073
:1037A00017D01E4A012191609168116800914B1C4D
:1037B000A4F1010119D111E041F2544038BD006873
:1037C0002146FFF71DFDECE740682146FFF718FD95
:1037D000E7E780682146FFF713FDE2E7009B1360EF
:1037E00012680092002A08BF38BD227802F05F02FA
:1037F00022702B6882F055025B1E04EB63031A7083
:103800002A6894F800C0535C4CF0AA0C83EA0C03BD
:10381000535429684910296038BD00000030024027
:1038200038B50D46002114460091002819BF002D1F
:10383000002C41F2544038BD016889798A00226029
:1038400000682946FFF7DCFC144A01219160916869
:10385000116800914B1CA5F1010106D1009B13607A
:1038600012680092002A08BF38BD2A7802F05F0271
:103870002A70236882F055025B1E05EB63031A7001
:10388000226895F800C0535C4CF0AA0C83EA0C0344
:10389000535421684910216038BD000000300240B7
:1038A000F0B50E46040014BF002E41F2544500F05E
:1038B000CB80206900281CBF6069002839DD4428BE
:1038C00037DC2168002934D06168002931DB4429C4
:1038D0002FDCA16900291CBFE169002929DD4429E9
:1038E00027DC316829B3C01C20F00300B28800EB4C
:1038F0004000602303EB4000904288BF40F2ED356A
:103900007ED8F08808442063F0881830F080206B5F
:10391000002804BF40F2ED30F0BD61690830C91CD9
:103920008908324602F0E5FF05004FF0000703D09A
:1039300086E041F2534587E060693246C01C810849
:10394000206B02F0D6FF050075D1206B0268D4E928
:10395000000103F051F9206B8268D4E9040103F0FF
:103960004BF9E0693246C01C8108206B0C3002F034
:10397000C0FF05005BD1206BC268D4E9060103F0EB
:103980003BF9206B4760206B0761206B4761A068A3
:1039900098B1E068002810DD44280EDAC01C8108C8
:1039A000206B3246001D02F0A4FF05003AD1206BC7
:1039B0004268D4E9020103F01FF9206A00281CBF05
:1039C000606A002840DD44283EDAA16A00291CBF55
:1039D000E16A002938DD442936DAC01C8108206BF1
:1039E0003246103002F085FF050016D1206B0269C7
:1039F000D4E9080103F000F9E06AC01C810800E086
:103A000022E0206B3246143002F073FF0500206B79
:103A10001CD01030314602F08DFF206B3146001D66
:103A200002F088FF206B31460C3002F083FF3146F4
:103A3000206B02F07FFF206B3146083002F07AFFE6
:103A4000F0881838F08027632846F0BD4269D4E931
:103A50000A0103F0D1F8F7E7002919BF002A00286E
:103A600041F25440704770B50446086B15460E4647
:103A700000281FBF2A68002A8168002904BF41F27C
:103A8000534070BDE8888979342301EB410103EB91
:103A90008101AB880144994284BF40F2ED3070BD92
:103AA00010442060E8882A461030E880306B806837
:103AB0008179206802F01DFFD8B9306B2A468068F2
:103AC00081792068001D02F014FF70B9306B2A461E
:103AD000806881792068083002F00BFF0028206898
:103AE0000FD0001D294602F025FF2946206802F06C
:103AF00021FFE8881038E8800020206040F2ED3097
:103B000070BD0068002101F083F820680021406842
:103B100001F07EF820680121806801F079F82168C1
:103B200001200873002070BD002919BF002A002859
:103B300041F25440704730B50446086B00281FBF5F
:103B40001368002BD0F80CC0BCF1000F04BF41F289
:103B5000534030BDD0889CF806C0102505EB8C0C76
:103B600095888444AC450CD81818206009D0D088BA
:103B7000001DD080086BC0688179206802F0B9FE12
:103B800010B140F2ED3030BD20680021006801F036
:103B90003FF8002030BD2DE9F04383B006004FF020
:103BA00000000A9D1F4691468846019018BFB8F153
:103BB000000F29D0B9F1000F1CBF002F002D23D01A
:103BC000386BC16800291CBF016900291FD08168BA
:103BD00000291CBF0068002819D02868002808BFE9
:103BE00040F2ED343FD08979E88801EB410134227D
:103BF00002EB81010844A988884288BF40F2ED3079
:103C000008D903B0BDE8F08341F254442BE041F2FF
:103C1000574428E0386B4A46C168306800F06FFFAF
:103C2000040020D130688188012903D10068006830
:103C30000028EFD02A46394601A8FFF70DFF0400FF
:103C400011D13946019800F0AFF8040007D13B4686
:103C5000424631460095019800F00AF8044629468C
:103C600001A8FFF747FD03B02046BDE8F083000040
:103C70002DE9F04186B014460C9A1F460E465FEAC5
:103C8000000818BF002E29D0002C1CBF002F002ACE
:103C900024D0386B002802BF41F2534006B0BDE883
:103CA000F0818368002B19BF0068002841F257405B
:103CB00006B008BFBDE8F0813068002819BF006871
:103CC000002841F2564006B008BFBDE8F08102A9C5
:103CD000184601F0BBF9050005D011E006B041F22D
:103CE0005440BDE8F08102A800903B462246414680
:103CF000306801F0C3FF050006D002A801F09FFE66
:103D000006B02846BDE8F081214602AA084602F026
:103D100063F9054602A801F092FE002DF0D1207B48
:103D200010F0020F18BF41F25845E9D10A480121AD
:103D300021738160816801684A1C02D101600068BA
:103D400028B1D4E900012160A168C4E9011006B0DE
:103D50000020BDE8F081000000300240002818BFBC
:103D6000002A01D0002B02DA41F25440704710B40F
:103D700004689446002C1FBF4268002A806800280F
:103D800008D000290CBF2246012907D0022908BF0C
:103D9000024603D010BC41F25440704710BC194693
:103DA000604602F029BF000078B504004FF0000023
:103DB0000E46009014BF002E41F254452FD0306BB8
:103DC00000281FBF0269002A4069002808BF41F28D
:103DD000534524D010462168FFF7ACFA05001ED1E8
:103DE000306B61684069FFF7A5FA050017D1012122
:103DF000A06800F00DFF0B48012181608268026815
:103E00000092521C04D1009A02600068009028B110
:103E1000D4E900022260A268C4E901202173284687
:103E200078BD0000003002402DE9F0418AB04FF02B
:103E30000008CDF80C8015460E460700CDF804802A
:103E4000CDF80880CDF820801ABF002E002D41F259
:103E5000544400F01281306B002808BF41F25344F3
:103E600000F00B81816800291CBFC268002A20D0A5
:103E70004268002A1CBF006800281AD0387B02283C
:103E800008BF41F2554400F0F880286860B1887995
:103E9000EA8800EB400102EB81014C2202EBC000FA
:103EA0000844A988884208D90AB040F2ED30BDE83C
:103EB000F08141F2574400F0E0B82A46314603A8A9
:103EC000FFF7CAFD040040F0D880306B8168386885
:103ED000FFF7DCF9002806DA306B81687868FFF7B5
:103EE000D5F9002803DB41F2554400F0C2B838464A
:103EF0000399FFF78EFB306B2A4604A9806801F016
:103F0000A5F8040040F0B580306B2A4680688179BE
:103F100002A802F0EEFC040076D1306B2A468068DD
:103F2000817901A802F0E5FC04006FF003076CD171
:103F3000039804AB05990068024601F099FD04005E
:103F40007CD1039804AB05994068024601F090FDCE
:103F5000040073D1039804AB82680068014601F045
:103F600087FD04006AD1306B02990068FFF7E2F91F
:103F7000DDE9012004AB059901F07AFD04005DD173
:103F80000095DDE9030301998068024600F0BCFE5C
:103F9000040053D1039804AB816800680A4601F01D
:103FA00067FD04004AD1306B02994068FFF7C2F9FF
:103FB000DDE9012004AB059901F05AFD04003DD173
:103FC0000095DDE9030301998068024600F09CFE3C
:103FD000040033D1039804ABD0E90020014601F07E
:103FE00047FD04002AD12748012141F25544816050
:103FF000816801680891491C08D00398006801464F
:10400000FFF744F978B917E030E023E00899016040
:10401000006808900028039806D000680146FFF762
:1040200035F900B908E009E081680068FFF72EF96A
:10403000002808BF002401E041F25244019848B131
:104040008079E988404207EB800008440838E8801E
:10405000CDF80480029848B18079E988404207EBA6
:10406000800008440838E880CDF8088004A801F0F2
:10407000E6FC294603A8FFF73DFB0AB02046BDE851
:10408000F081000000300240002812BF002941F2F8
:104090005440704730B5044600680D46002804BF00
:1040A00041F2544030BD02F045FC20682946001D15
:1040B00002F040FCE8880838E8800020206030BD2D
:1040C00038B5144600221D460092002818BF002C67
:1040D0001AD0002D1FBF0268002A4368002B13D09E
:1040E000927992002A6091B1012918BF41F254409F
:1040F00012D01B4A012191609168116800914B1CFC
:10410000A4F1010114D10CE041F2544038BD006823
:104110002146FFF775F8ECE740682146FFF770F895
:10412000E7E7009B136012680092002A08BF38BDC1
:10413000207800F05F0020702A6880F05500521E41
:1041400004EB6202107028682378425C43F0AA03F3
:104150005A40425428684010286041F2544038BD0B
:1041600000300240002919BF002A002841F25440C3
:10417000704770B50546086B14460E4600281FBFF1
:1041800021680029C268002A04BF41F2534070BD73
:10419000E0889279202303EBC202A38802449A426A
:1041A0001BD808442860E08822460830E080306B45
:1041B000C0688179286802F09CFB70B9306B224698
:1041C000C06881792868001D02F093FB002808BFB1
:1041D00070BD2146286802F0ADFB40F2ED3070BDA5
:1041E0009446002818BFBCF1000F0AD00268002ACC
:1041F0001CBF4068002804D031B1012908BF024625
:1042000002D041F2544070471946604602F0F4BCB7
:104210002DE9FF4F91B000201E9D01900390029068
:104220000B900590089011981C469046002818BFE6
:10423000B8F1000F36D0002C18BF002D32D06068C6
:1042400000281CBF216800292FD0A16800291FBFAA
:1042500029680029006B002827D0C16800291CBFED
:104260000269002A24D08268002A1CBF0068002846
:104270001ED09279E88802EB420200EBC2028879F4
:1042800002EB0011AA889C31914288BF40F2ED39BF
:104290007ED8411C2A4601A802F02BFB5FEA0009E8
:1042A00076D108E041F254499DE041F253499AE049
:1042B00041F2574997E060682A46006BC0688179EF
:1042C00003A802F016FB5FEA00096FF0030777D13D
:1042D0002A4608A86168FFF7BFFB5FEA000973D1AF
:1042E0002A4605A86168FFF7B7FB5FEA000967D1B6
:1042F00061680598FFF758FD60682A460CA9006BB5
:10430000806800F0A3FE5FEA000908BF042653D1CD
:10431000D4E90102006BC168019800F0F0FB5FEA8C
:10432000000946D101988188012903D101680968F3
:104330000029EDD00CA900916368089A059901F055
:104340009DFC5FEA000934D108990CAA084601F0E7
:1043500043FE5FEA00092CD108980068C079012863
:1043600010D1616808982B46096B0068C96802463D
:10437000FEF768FD5FEA00091BD108980068C07964
:104380000128EED06068006BC1680898006800E002
:1043900029E0FEF77BFF00280898006827DB6168AA
:1043A0002B460246096BC96802F0D6FA5FEA00099B
:1043B000E8D00CA801F043FB294605A8FFF79AF9BD
:1043C000294608A8FFF796F90198002818BF002D84
:1043D00009D08079E988404207EB8000084408381A
:1043E000E8800020019015B04846BDE8F08F818834
:1043F000012903D100680068002889D00CA801F0C9
:104400001EFB294605A8FFF775F9606801992B4640
:10441000006BC268084600F0DEFC5FEA0009CFD1FD
:10442000089803990068FEF785FF294608A8FFF75A
:1044300061F960682A46006BC068817902A802F0C1
:1044400058FA5FEA000940F0838160682A46006BF1
:10445000C06881790BA802F04CFA5FEA000940F0CD
:10446000688160682A460CA9006BC06800F0EEFD08
:104470005FEA000940F04E81039A0CAB10460D999B
:1044800001F0F6FA814620680D990CAB0068029A9B
:1044900001F0EEFA019A40EA09090CAB10460D99B9
:1044A00001F0E6FA50EA090940F03181DDE9020144
:1044B0000CAB0B9A01F0DCFA5FEA000940F02781AF
:1044C0006068006BC3689A889446012A05D1186811
:1044D0000068002808BF012011D0D3F8009007EB36
:1044E00082024FEA4C1059F802204FF0004100BF01
:1044F00031EA02091EBF00294908401EF8D112996D
:10450000B0EBC10F7EDABCF1010F05D1186800686D
:10451000002808BF01200ED01A6807EB8C034FEA71
:104520004C10D2584FF0004131EA02031EBF00295F
:104530004908401EF8D1C01DC11700EB5170C010D2
:1045400012900146029A119802F056FB6168029897
:10455000096BCB68B3F804C0BCF1010F05D1196831
:104560000968002908BF01210FD04FEA4C111B68D0
:1045700007EB8C0C4FF0004253F80C3032EA030C7E
:104580001EBF002A5208491EF8D1129AD1EBC2016F
:1045900064D0202962D28288012A4AD000234FF0B9
:1045A000010C3CEA02020FD00368C1F1200AD3F8E3
:1045B00000C0D3F804902CFA01FC09FA0AF94CEA7D
:1045C000090CC3F800C00123B0F804C0ACF1010C21
:1045D000944588BFC1F1200C2BD900BFD0F80090C2
:1045E00006EB830B59F823A059F80BB02AFA01FA0D
:1045F0000BFA0CFB4AEA0B0A49F823A05B1CD0F823
:10460000009000E026E006EB830B59F823A059F850
:104610000BB02AFA01FA0BFA0CFB4AEA0B0A49F82A
:1046200023A0B0F804905B1C921CA9F101099145EC
:10463000D4D88288036807EB820253F802C03CFAA0
:1046400001FC43F802C0818808D101291CBF491E22
:10465000818003E0029A119802F0CEFA029A0CAB24
:1046600010460D9901F004FA5FEA00094FD1626823
:1046700002980B99126B82462B46D2F80CB0524628
:10468000FEF7E0FB40B19AF80620BAF80410521C7D
:10469000914201D081463AE059465046FEF7F6FD78
:1046A000002805DB52462B465946104602F054F9C5
:1046B000BAF804009AF80610884202D941F2B549C6
:1046C00025E0019A0CAB1046029901F0D1F901994D
:1046D0000CAA084600F08DFC03990CAA084600F0CD
:1046E00088FC01988188012904D1006800680028AD
:1046F0003FF40EAED8F800100398FEF71BFE0446F8
:10470000D8F804100198FEF715FE40EA04090CA839
:1047100001F095F90398002818BF002D09D0807981
:10472000E988404207EB800008440838E880002010
:1047300003900298002818BF002D09D08079E988DD
:10474000404207EB800008440838E88000200290CF
:104750000B98002818BF002D3FF436AE8079E98809
:10476000404207EB800008440838E88000200B90A6
:104770002AE62DE9F0478CB04FF00008CDF81880FC
:10478000149ECDF804801D4617468A465FEA00094C
:10479000CDF81C80CDF82C80CDF8288018BF002FD4
:1047A00038D0002D18BF002E34D0686800281CBFF8
:1047B0002968002932D0016B00291CBF306800280D
:1047C0002CD0386800281CBF7A68002A26D0CB6815
:1047D000002B1CBF0A69002A24D08A68002A1CBF4B
:1047E000096800291ED09279F18802EBC20201EB20
:1047F00082019A794FF0B40C0CEBC2021144B288DA
:10480000914288BF40F2ED3400F244818188012951
:104810000FD10BE041F2544400F03CB941F2534453
:1048200000F038B941F2574400F034B90168096822
:1048300099B11946FEF72AFD401C0ED17A6890887E
:10484000012802D11068006838B16868006BC1683F
:104850001046FEF71BFD401C03D04FF47B7400F0A4
:1048600019B968683246006BC068817907A802F000
:1048700040F8040040F00E816868006BC068FEF7E5
:10488000A8FDB0EBCA0F19DA6868006BC068FEF7C4
:10489000A0FDC01DC11700EB5170C4102146484651
:1048A000079A02F0A9F96868006BC068FEF791FDED
:1048B000C0EBC401079801F0D9FC04E0514648461A
:1048C000079A02F099F968683246006BC0688179EE
:1048D00006A802F00EF804006FF0030940F0CB8048
:1048E000686833460699006BC268786800F073FA0E
:1048F00004007ED16868324602A9006BC06800F0EF
:10490000A5FB040075D1069A02AB1046039901F08D
:10491000AFF804006ED10399059859B150B1039ACC
:10492000C1889279524209EB820211440839C18050
:10493000CDF80C80079A02AB1046069901F098F862
:10494000040056D1069A02AB3868114601F090F87F
:1049500004004ED102A801F072F86868324602A93C
:10496000006B806800F072FB040075D1324601A82C
:104970006968FFF771F804006BD169680198FFF767
:1049800013FA32460BA86968FFF766F804005CD199
:104990000DF1080ACDF800A06B680B9A01990798F1
:1049A00001F06CF904004CD1CDF800A0D5E900135A
:1049B000019A069801F062F9040042D132460AA831
:1049C0006968FFF749F804003BD1CDF800A0DDE9A4
:1049D0000A216B68019800F0EEFC04002DD10A99C1
:1049E00002AA084601F0F8FA040026D10A98007BD2
:1049F00001E031E02DE002281DD06868006BC1683D
:104A00000A980068FEF742FC00280A980ADB6968E9
:104A100000683346096B0246C96801F09DFF040037
:104A2000EBD00AE001683868FEF730FC002808BFC8
:104A300040F2EB3401D04FF47B7431460AA8FEF704
:104A400059FE31460BA8FEF755FE314601A8FEF788
:104A500051FE02A800F0F3FF0698002818BF002EB0
:104A600009D08079F188404209EB80000844083879
:104A7000F080CDF818800798002818BF002E09D0C4
:104A80008079F188404209EB800008440838F080C2
:104A9000CDF81C800CB02046BDE8F08730B4828889
:104AA000012A05D101680968002904BF30BC70479C
:104AB0000021012A12D0521E4FF0040C03680CEBA7
:104AC000810553F821405D5D640844EAC57443F8EC
:104AD0002140491C521EF1D18188491E026852F8BA
:104AE00021305B0842F82130818801299CBF30BC0D
:104AF0007047002B04BF491E818030BC70472DE9F0
:104B0000F74F84B004460598FEF763FC81461F30DA
:104B1000C11700EBD160C0F34711C0F34F10CDE9CE
:104B200001014FEA80084FF4803BA1790298069F6B
:104B3000884204D907B041F2B540BDE8F08F0020AB
:104B4000E0710198A080266809F01F0A1FB12EB9F4
:104B5000B8F1000F02DD41F274700BE0B86A002872
:104B600008BF41F2717005D0786A002818BF41F281
:104B700072702ED0A188491EBAF1000F0BD02268A6
:104B8000CAF120054FF0FF3352F821C0EB400CEA88
:104B9000030342F821306FF00303A188012909D9EA
:104BA000226803EB810C52F80C20002A04BF491E36
:104BB000A180F2D000281CBF07B0BDE8F08F2046CE
:104BC0000599FEF763FB0028AFDA07B00020BDE8C7
:104BD000F08F0025B5EB184F0EDA002306EB0541E8
:104BE0001A463846CDF800B002F0AAF80028C1D124
:104BF0006D1CB5EB184FF0DB694208EB0140002358
:104C0000009006EB05411A46384602F099F8B1E7E4
:104C100070B48279002302B39C4612F001024FF077
:104C2000040405D0D0F800C0CCF804304FF0010CDB
:104C30008579954211D900BF056804EB8C060CF10B
:104C4000010CAB51056804EB8C06921CAB518579C5
:104C500092B20CF1010C9542EED80122828000291B
:104C600004DBC3710068016070BC7047C2710068EA
:104C70004942016070BC70472DE9F00700293FD020
:104C800083886FF00308026808EB830C002752F852
:104C90000C20C1F12004E24018BF1746012B19D0A7
:104CA00000225B1E6FF007098588D0F800C0AE1A9D
:104CB00008EB860509EB86065CF805A05CF8066043
:104CC0000AFA01FAE6404AEA0606521C4CF8056068
:104CD0005B1EE9D10268136803FA01F111607FB12C
:104CE000818883794A1C9A4282BF41F2B540BDE86F
:104CF000F0077047026842F821708188491C818062
:104D0000BDE8F0070020704770B51D46049E1446AC
:104D10003346FEF797F828B1A279A188521C914238
:104D200018BF70BD29462046FEF7B0FA002805DB03
:104D3000224633462946104601F00EFEA088A1798E
:104D400088428CBF41F2B540002070BD2DE9F0478C
:104D500004468088002617468846012802D121682B
:104D6000096811B300281CBF0022111F11D0A388AD
:104D70002568A3EB020C01EB8C0955F82C3055F893
:104D800009905B0043EAD973521C45F82C30401E51
:104D9000EDD12068016849000160A088216851F8C0
:104DA0002010012904BF401CA08041462046FEF788
:104DB0006DFA002806DB22463B464146104601F0CC
:104DC000CBFD0646A088A17988428CBF41F2B54050
:104DD0003046BDE8F0872DE9F04387B000258146D5
:104DE000009501950395029510681646884600784F
:104DF0001C4610F0010F02BF41F2B64007B0BDE8FB
:104E0000F083B1791A46684601F073FD00281CBF93
:104E100007B0BDE8F083B179224601A801F069FD31
:104E20006FF00307002840F0D180B0792246411C82
:104E300003A801F05EFD002840F0BA80B079224658
:104E4000411C02A801F055FD002874D14846009984
:104E5000FEF770FA00286FD130460199FEF76AFA22
:104E6000002869D101210398FFF7D2FE00210298A2
:104E7000FFF7CEFE00988188012903D10068006801
:104E800000285AD000980168097811F0010F16D156
:104E9000FFF704FE03980168097811F0010F07D0AD
:104EA000234602463146FDF7CDFF002864D102E0DB
:104EB000FFF7F4FDE6E70398FFF7F0FDE2E701985E
:104EC0000168097811F0010F0DD001460098FEF736
:104ED000DDF90028234621DB009A0199104601F0F4
:104EE0003BFD48BB15E0FFF7D9FD02980168097842
:104EF00011F0010F06D0234602463146FDF7A2FF0E
:104F0000D0B902E0FFF7CAFDD9E70298FFF7C6FD66
:104F1000D5E7039A23461046029909E0019A0099C1
:104F2000104601F019FD38B9029A2346104603993C
:104F300001F012FD9EE72DE01EE00298C1790129E3
:104F400007D1234602463146FDF77CFF0028F4D006
:104F500012E031460298FEF799F9002808DB029A20
:104F600023461046314601F0F7FC0028F1D003E05B
:104F700041460298FEF7DEF90299002918BF002C7D
:104F800008D08979E288494207EB81011144083948
:104F9000E18002950399002918BF002C08D0897977
:104FA000E288494207EB810111440839E180039509
:104FB0000199002918BF002C08D08979E28849425C
:104FC00007EB810111440839E1800195009900291E
:104FD00012BF002C07B0BDE8F083E288897949420E
:104FE00007EB810111440839E180009507B0BDE865
:104FF000F083F8B5002500950F46144606468179E2
:10500000D268684601F075FC00281CBF40F2ED3004
:10501000F8BD01210098FFF7FBFD23463A463046D4
:10502000009900F025FD009AE168002A14BF0029CC
:10503000F8BDCB8892796FF0030C52420CEB8202E0
:105040001A44083ACA800095F8BD00002DE9F74FD0
:1050500084B00020009004980C46069A8079811C48
:10506000201D01F046FC00284DD10498206000214D
:105070006068FFF7CDFD049861684FF0010C8088EF
:10508000401C8880606801680498808841F820C0CE
:10509000049800680268604602F00301022928BFF4
:1050A0000320042107230F2502FB00F61E408E4239
:1050B00028BF084449008CEA430302FB00F61E4067
:1050C0008E4228BF084449008CEA43036D1EEBD191
:1050D0004042A0600498069A8079411C684601F01D
:1050E00008FC2D1F80B161680698002918BF0028B0
:1050F00041D08979C288494205EB810111440839C0
:10510000C1800020606036E000990498FEF712F933
:105110000098FEF75EF9C0F1200000F01F00014684
:1051200001900098FFF7A8FD6068069B0246009971
:1051300001F012FC20B361680698002918BF00280E
:1051400009D08979C288494205EB810111440839A7
:10515000C1800020606000990698002918BF0028CF
:1051600009D08979C288494205EB81011144083987
:10517000C1800020009007B040F2ED30BDE8F08F14
:105180000020029004988088002840F2F280019864
:10519000C0F120000390616804980A6880888B88B9
:1051A00005EB80008E791758012003F1010CB445FE
:1051B0003CD8012B04BF1268002A37D04FF00008FA
:1051C000012B1CBF00225B1E13D000BFB1F804C02E
:1051D0000E68ACEB02098444ACEB020C05EB8909C8
:1051E00005EB8C0C56F80990521C46F80C905B1E8F
:1051F000ECD10A68136842F820300023012813BF5D
:1052000002460A68C2F8008090420CD9D1F800C06A
:10521000921C4CF82380D1F800C05B1C4CF8238012
:105220005B1C9042F2D88A8810448880002F18BFF7
:105230006FF007067ED000990498FEF77BF800987F
:10524000B7B30021B0F804C0D0F800A00A46BCF102
:10525000000F30D0AAF104031CF0010F05D053F861
:10526000041FA1FB07211A600022B0F804C05FEA06
:105270005C0C18BF4FF000090FD0D3F804809346A0
:10528000E8FB071B59609A684946E2FB07B143F8FF
:1052900008BF4A46BCF1010CEFD1828859B190F8A1
:1052A00006C0531C63459CBF83804AF8221002E06D
:1052B000FFE701F0FBFADDE90002E2B3B0F804C059
:1052C000016805EB8C034FF0000BCB580399CB40E2
:1052D00018BF9B46BCF1010F1CBF0023ACF1010CB1
:1052E00019D000BFB0F804800768A8EB030905EBEC
:1052F000890806EB890957F808A057F809900AFAB7
:1053000002FA29FA01F94AEA09095B1C47F80890F0
:10531000BCF1010CE6D101680B6803FA02F20A60E5
:10532000BBF1000F0DD0818883794A1C9A4208D8BE
:10533000026801E014E004E042F821B08188491CD1
:1053400081806068069B0246009901F005FB606859
:1053500001680498808851F82070002F7FF46BAFAB
:105360000298401C029004988188029881423FF67E
:1053700012AF00990698002918BF002809D0897932
:10538000C288494205EB810111440839C1800020DF
:10539000009060680499FDF779FF002805DD6068DA
:1053A000069B0246049901F0D7FA0698E06007B020
:1053B0000020BDE8F08F2DE9FF4F85B04FF00009C8
:1053C000129D0746CDF80090CDF80490CDF80890D6
:1053D0002868884616468079EA68411C684601F0CC
:1053E00088FA040040F0A2812868EA688079411CAC
:1053F00001A801F07EFA04006FF0030A40F08681F4
:105400002868EA688079411C02A801F072FA040059
:1054100040F06C81387B10F0020F98F80C0009D036
:1054200010F0020F19BF022030733146404640F0A1
:105430004D8105E010F0020F1CBF3146384603D005
:10544000FEF7E7F800F042B910F0010F07D031681D
:105450003868FDF76FFF04001FD000F037B9D8F8A7
:1054600008002B460146009A00F002FB040040F0C1
:105470002D8132682B463868009900F0F9FA2B46E6
:10548000D8F80800029A009900F0F2FA72682B46E8
:105490007868029900F0ECFA03E071687868FDF72B
:1054A00049FFB8682B460146009A00F0E1FA040073
:1054B00040F00C81DDE900122B46D8F8000000F026
:1054C000D7FA31682A6804920198EA68834613463D
:1054D00003925A4601F040FA002818BF04460AD148
:1054E0009BF80700012809D1DDE903315A4610462F
:1054F000FDF7A8FC0446002C40F0E880009A2B46FB
:10550000B868114600F0B4FA009A2B46D8F80400A7
:10551000114600F0ADFA71682A680492EA68DDF875
:1055200008B01346039200985A4601F015FA002875
:1055300004BF9BF80700012805D1DDE903315A4675
:105540001046FDF77FFC01988188012902D100688F
:10555000006858B198F80C0010F0010F17D0B1682E
:10556000B868FDF7E7FE04001AD0AFE00298818822
:10557000012902D10068006808B10220A5E02B468D
:1055800031463846089A00F0D5F804469EE0B268E5
:10559000D8F808102B46B86800F06AFA04007ED1EB
:1055A000B0682B460246019900F062FA040076D1F9
:1055B000DDE900212B46084600F05AFA019A2B46F5
:1055C0001046009900F054FA009A2B4631681046B4
:1055D00000F04EFA70682B460246019900F048FA36
:1055E00002992B463268084600F042FA3068D5F836
:1055F0000C800746019943463A46D5F800B001F0C1
:10560000ABF9040009D1F879012808D13A4643469C
:1056100059461046FDF716FC0446002C56D1DDE92C
:105620000001FDF787FEEA6829680198FFF78EFB05
:1056300004004BD13068EF68044601993B4622468E
:10564000D5F8008001F088F9002804BFE07901282E
:1056500005D122463B4641461046FDF7F3FB019C2F
:10566000EF68009831683B462246D5F8008001F08B
:1056700073F9002804BFE079012805D122463B4692
:1056800041461046FDF7DEFB019A2B461046029973
:1056900000F0EEF9040019D10198716800E015E0FE
:1056A000D5F80C800F4643463A46D5F800B001F0D5
:1056B00053F9002804BFF879012805D13A4643463A
:1056C00059461046FDF7BEFB042030730299E86886
:1056D000002918BF002809D08979C28849420AEBFD
:1056E000810111440839C180CDF808900199E8681A
:1056F000002918BF002809D08979C28849420AEBDD
:10570000810111440839C180CDF804900099E868FE
:10571000002918BF002809D08979C28849420AEBBC
:10572000810111440839C180CDF8009009B02046AC
:10573000BDE8F08F2DE9F04F83B04FF00008074629
:10574000CDF80880CDF8048018680E46914680791F
:105750001C46811C01A8DA6801F0CBF8050040F076
:105760006A812068E2688079811C02A801F0C1F892
:1057700005006FF0030A40F04E81C11E0198FFF74B
:1057800047FA387B10F0020F1CBF0220307340F044
:10579000328104203073B86823460146029A00F033
:1057A00067F9050040F02781D7E901102346B26868
:1057B00000F05EF9E2682168B068FFF7C7FA0500FB
:1057C00040F01981019AE36821681046FDF73AFB21
:1057D000D9F8300001680198FDF758FD48B1029AE8
:1057E00023461046014600F043F9050040F00381CE
:1057F00040E0DDE90191D4F80CB038685B464A46D8
:10580000256801F0A9F848B999F80700012808D1DE
:105810004A465B4629461046FDF714FB050040F05A
:10582000EA80E06800902368326838680299FFF7E0
:105830006BFA050040F0DF80DDE901122346306895
:1058400000F016F9050040F0D680DDE90110FDF703
:1058500071FDE26821680198FFF778FA050040F0D1
:10586000CA80E0680090029A236811460198FFF709
:105870004BFA2AE0D9F83000616823460068019AA3
:1058800000F0F6F8029A23461146019800F0F0F86D
:10589000386823460146019A00F0EAF8E068009073
:1058A000029A236810460199FFF72EFAE2682168F0
:1058B0000198FFF74BFAE0680090029A23681046BF
:1058C0000199FFF721FA05007ED1786832682346F6
:1058D000014600F0CDF8050076D130682346014638
:1058E000019A00F0C5F8E26821680198FFF72EFAE6
:1058F000E26821680198FFF729FAE26821680198B7
:10590000FFF724FAE26821683068FFF71FFAE268BF
:1059100021683068FFF71AFAD6E900122346386882
:1059200000F0A6F8050066D10299234632680846C1
:1059300000F09EF8D6E90001D4F80C9007464B46DB
:105940003A46D4F800B001F007F8002804BFF8790F
:10595000012805D13A464B4659461046FDF772FAE2
:10596000D6E90001D4F80C9007464B463A46D4F8E5
:1059700000B000F0F1FF002804BFF879012805D13C
:105980003A464B4659461046FDF75CFAD6E90010F8
:10599000D4F80C9007464B463A46D4F800B000F0D5
:1059A000DBFF002804BFF879012805D13A464B46B1
:1059B00059461046FDF746FA716823460A46029892
:1059C00000F056F8706800E015E0E76806460199B7
:1059D0003B460246D4F8009000F0BEFF00280ABF04
:1059E000F0790546012806D132463B464946104625
:1059F000FDF728FA05460299E068002918BF00283B
:105A000009D08979C28849420AEB810111440839D9
:105A1000C180CDF808800199E068002918BF0028EE
:105A200009D08979C28849420AEB810111440839B9
:105A3000C180CDF8048003B02846BDE8F08F002374
:105A4000036083604268002A1ABFC168002970475A
:105A500010B49279B1F806C052426FF0030404EB1F
:105A600082026244083ACA80436010BC704700005A
:105A70002DE9FF4F87B0002000900A980D4600687E
:105A8000848801680491296803910A9989680691BC
:105A90000A998079CA68411C684600F02AFF0028EC
:105AA0001EBF40F2ED300BB0BDE8F08F0021009832
:105AB000FFF7AEF8009800680190AA88A24215D2BC
:105AC000039800EB8200001FA11A11F0010F02D011
:105AD000002140F8041FA988611A491018BF00224C
